S010000063746354696D65722E73726563D9
S11300000C9434000C943E000C943E000C943E007E
S11300100C943E000C943E000C943E000C943E0064
S11300200C943E000C943E000C943E000C943E0054
S11300300C943E000C943E000C943E000C943E0044
S11300400C943E000C943E000C943E000C943E0034
S11300500C943E000C943E000C943E000C943E0024
S11300600C943E000C943E0011241FBECFEFD8E048
S1130070DEBFCDBF0E9466000C9471000C9400009A
S113008020E030E007C0A89BFECF85B3816085BB2C
S11300902F5F3F4F2D333105B4F3089516BC84B55B
S11300A08D7F84BD84B58E7F84BD85B5877F85BDF6
S11300B085B5856085BD85B58D7F85BD089584B181
S11300C0846084B985B18B7F85B908950E945F00EF
S11300D00E944E0095B184E0892785B90E944000B2
S10900E0F9CFF894FFCFF4
S9030000FC
