:100000000C9434000C943E000C943E000C943E0082
:100010000C943E000C943E000C943E000C943E0068
:100020000C943E000C943E000C943E000C943E0058
:100030000C943E000C943E000C943E000C943E0048
:100040000C943E000C943E000C943E000C943E0038
:100050000C943E000C943E000C943E000C943E0028
:100060000C943E000C943E0011241FBECFEFD8E04C
:10007000DEBFCDBF0E945B000C9468000C940000B2
:1000800084B58C7F84BD85B5877F85BD85B585604A
:1000900085BD85B58D7F85BD20E030E008C016BCEC
:1000A000A89BFECF85B3816085BB2F5F3F4F2D336B
:1000B0003105ACF3089584B1846084B985B18B7F38
:1000C00085B995B184E0892785B90E944000F9CFB0
:0400D000F894FFCFD2
:00000001FF
