S0110000696E707574526561642E7372656367
S11300000C9434000C943E000C943E000C943E007E
S11300100C943E000C943E000C943E000C943E0064
S11300200C943E000C943E000C943E000C943E0054
S11300300C943E000C943E000C943E000C943E0044
S11300400C943E000C943E000C943E000C943E0034
S11300500C943E000C943E000C943E000C943E0024
S11300600C943E000C943E0011241FBECFEFD8E048
S1130070DEBFCDBF0E9440000C9450000C940000E1
S11300808AB1877F8AB987B1806287B94B9904C0E6
S113009088B1806288B9FACF88B18F7D88B9F6CFEC
S10700A0F894FFCFFE
S9030000FC
