S0100000666173745F70776D2E73726563B3
S11300000C9434000C943E000C943E000C943E007E
S11300100C943E000C943E000C943E000C943E0064
S11300200C943E000C943E000C943E000C943E0054
S11300300C943E000C943E000C943E000C943E0044
S11300400C943E000C943E000C943E000C943E0034
S11300500C943E000C943E000C943E000C943E0024
S11300600C943E000C943E0011241FBECFEFD8E048
S1130070DEBFCDBF0E9457000C9468000C940000B2
S11300808AB180648AB984B5836084BD85B5877F6D
S113009085BD85B5847085BD85B5836085BD84B512
S11300A0806884BD84B58F7B84BD17BC08950E948D
S11300B0400080E090E008C087BDEFE3FCE93197A1
S11300C0F1F700C0000001968F3F9105ACF3F1CF2A
S10700D0F894FFCFCE
S9030000FC
