S01400006D6F746F72436F6E74726F6C2E73726563FE
S11300000C942E000C9438000C9438000C94380096
S11300100C9438000C9438000C9438000C9438007C
S11300200C9438000C9438000C9438000C9438006C
S11300300C9438000C9438000C9438000C9438005C
S11300400C9438000C9438000C9438000C9438004C
S11300500C9438000C9438000C94380011241FBE02
S1130060CFEFD8E0DEBFCDBF0E943A000C945C0015
S11300700C9400008AB186608AB98BB182608BB916
S11300808BB18B7F8BB92FEF83E294EF21508040AB
S11300909040E1F700C000008BB18D7F8BB98BB12C
S11300A084608BB92FEF83E294EF2150804090401D
S10F00B0E1F700C00000E1CFF894FFCF9E
S9030000FC
